{
  "contractName": "Collectible",
  "abi": [
    {
      "inputs": [],
      "stateMutability": "nonpayable",
      "type": "constructor"
    },
    {
      "anonymous": false,
      "inputs": [
        {
          "indexed": true,
          "internalType": "address",
          "name": "owner",
          "type": "address"
        },
        {
          "indexed": true,
          "internalType": "address",
          "name": "approved",
          "type": "address"
        },
        {
          "indexed": true,
          "internalType": "uint256",
          "name": "tokenId",
          "type": "uint256"
        }
      ],
      "name": "Approval",
      "type": "event"
    },
    {
      "anonymous": false,
      "inputs": [
        {
          "indexed": true,
          "internalType": "address",
          "name": "owner",
          "type": "address"
        },
        {
          "indexed": true,
          "internalType": "address",
          "name": "operator",
          "type": "address"
        },
        {
          "indexed": false,
          "internalType": "bool",
          "name": "approved",
          "type": "bool"
        }
      ],
      "name": "ApprovalForAll",
      "type": "event"
    },
    {
      "anonymous": false,
      "inputs": [
        {
          "indexed": false,
          "internalType": "uint256",
          "name": "tokenId",
          "type": "uint256"
        },
        {
          "indexed": false,
          "internalType": "address",
          "name": "creator",
          "type": "address"
        },
        {
          "indexed": false,
          "internalType": "string",
          "name": "metadata",
          "type": "string"
        },
        {
          "indexed": false,
          "internalType": "uint256",
          "name": "royalty",
          "type": "uint256"
        }
      ],
      "name": "ItemMinted",
      "type": "event"
    },
    {
      "anonymous": false,
      "inputs": [
        {
          "indexed": true,
          "internalType": "address",
          "name": "from",
          "type": "address"
        },
        {
          "indexed": true,
          "internalType": "address",
          "name": "to",
          "type": "address"
        },
        {
          "indexed": true,
          "internalType": "uint256",
          "name": "tokenId",
          "type": "uint256"
        }
      ],
      "name": "Transfer",
      "type": "event"
    },
    {
      "inputs": [
        {
          "internalType": "address",
          "name": "to",
          "type": "address"
        },
        {
          "internalType": "uint256",
          "name": "tokenId",
          "type": "uint256"
        }
      ],
      "name": "approve",
      "outputs": [],
      "stateMutability": "nonpayable",
      "type": "function"
    },
    {
      "inputs": [
        {
          "internalType": "address",
          "name": "owner",
          "type": "address"
        }
      ],
      "name": "balanceOf",
      "outputs": [
        {
          "internalType": "uint256",
          "name": "",
          "type": "uint256"
        }
      ],
      "stateMutability": "view",
      "type": "function"
    },
    {
      "inputs": [
        {
          "internalType": "uint256",
          "name": "tokenId",
          "type": "uint256"
        }
      ],
      "name": "getApproved",
      "outputs": [
        {
          "internalType": "address",
          "name": "",
          "type": "address"
        }
      ],
      "stateMutability": "view",
      "type": "function"
    },
    {
      "inputs": [
        {
          "internalType": "string",
          "name": "",
          "type": "string"
        }
      ],
      "name": "hasBeenMinted",
      "outputs": [
        {
          "internalType": "bool",
          "name": "",
          "type": "bool"
        }
      ],
      "stateMutability": "view",
      "type": "function"
    },
    {
      "inputs": [
        {
          "internalType": "address",
          "name": "owner",
          "type": "address"
        },
        {
          "internalType": "address",
          "name": "operator",
          "type": "address"
        }
      ],
      "name": "isApprovedForAll",
      "outputs": [
        {
          "internalType": "bool",
          "name": "",
          "type": "bool"
        }
      ],
      "stateMutability": "view",
      "type": "function"
    },
    {
      "inputs": [],
      "name": "name",
      "outputs": [
        {
          "internalType": "string",
          "name": "",
          "type": "string"
        }
      ],
      "stateMutability": "view",
      "type": "function"
    },
    {
      "inputs": [
        {
          "internalType": "uint256",
          "name": "tokenId",
          "type": "uint256"
        }
      ],
      "name": "ownerOf",
      "outputs": [
        {
          "internalType": "address",
          "name": "",
          "type": "address"
        }
      ],
      "stateMutability": "view",
      "type": "function"
    },
    {
      "inputs": [
        {
          "internalType": "address",
          "name": "from",
          "type": "address"
        },
        {
          "internalType": "address",
          "name": "to",
          "type": "address"
        },
        {
          "internalType": "uint256",
          "name": "tokenId",
          "type": "uint256"
        }
      ],
      "name": "safeTransferFrom",
      "outputs": [],
      "stateMutability": "nonpayable",
      "type": "function"
    },
    {
      "inputs": [
        {
          "internalType": "address",
          "name": "from",
          "type": "address"
        },
        {
          "internalType": "address",
          "name": "to",
          "type": "address"
        },
        {
          "internalType": "uint256",
          "name": "tokenId",
          "type": "uint256"
        },
        {
          "internalType": "bytes",
          "name": "data",
          "type": "bytes"
        }
      ],
      "name": "safeTransferFrom",
      "outputs": [],
      "stateMutability": "nonpayable",
      "type": "function"
    },
    {
      "inputs": [
        {
          "internalType": "address",
          "name": "operator",
          "type": "address"
        },
        {
          "internalType": "bool",
          "name": "approved",
          "type": "bool"
        }
      ],
      "name": "setApprovalForAll",
      "outputs": [],
      "stateMutability": "nonpayable",
      "type": "function"
    },
    {
      "inputs": [
        {
          "internalType": "bytes4",
          "name": "interfaceId",
          "type": "bytes4"
        }
      ],
      "name": "supportsInterface",
      "outputs": [
        {
          "internalType": "bool",
          "name": "",
          "type": "bool"
        }
      ],
      "stateMutability": "view",
      "type": "function"
    },
    {
      "inputs": [],
      "name": "symbol",
      "outputs": [
        {
          "internalType": "string",
          "name": "",
          "type": "string"
        }
      ],
      "stateMutability": "view",
      "type": "function"
    },
    {
      "inputs": [
        {
          "internalType": "uint256",
          "name": "",
          "type": "uint256"
        }
      ],
      "name": "tokenIdToItem",
      "outputs": [
        {
          "internalType": "address",
          "name": "owner",
          "type": "address"
        },
        {
          "internalType": "address",
          "name": "creator",
          "type": "address"
        },
        {
          "internalType": "uint256",
          "name": "royalty",
          "type": "uint256"
        }
      ],
      "stateMutability": "view",
      "type": "function"
    },
    {
      "inputs": [
        {
          "internalType": "uint256",
          "name": "tokenId",
          "type": "uint256"
        }
      ],
      "name": "tokenURI",
      "outputs": [
        {
          "internalType": "string",
          "name": "",
          "type": "string"
        }
      ],
      "stateMutability": "view",
      "type": "function"
    },
    {
      "inputs": [
        {
          "internalType": "address",
          "name": "from",
          "type": "address"
        },
        {
          "internalType": "address",
          "name": "to",
          "type": "address"
        },
        {
          "internalType": "uint256",
          "name": "tokenId",
          "type": "uint256"
        }
      ],
      "name": "transferFrom",
      "outputs": [],
      "stateMutability": "nonpayable",
      "type": "function"
    },
    {
      "inputs": [
        {
          "internalType": "string",
          "name": "metadata",
          "type": "string"
        },
        {
          "internalType": "uint256",
          "name": "royalty",
          "type": "uint256"
        }
      ],
      "name": "createCollectible",
      "outputs": [
        {
          "internalType": "uint256",
          "name": "",
          "type": "uint256"
        }
      ],
      "stateMutability": "nonpayable",
      "type": "function"
    },
    {
      "inputs": [],
      "name": "getItemsLength",
      "outputs": [
        {
          "internalType": "uint256",
          "name": "",
          "type": "uint256"
        }
      ],
      "stateMutability": "view",
      "type": "function"
    },
    {
      "inputs": [
        {
          "internalType": "uint256",
          "name": "tokenId",
          "type": "uint256"
        }
      ],
      "name": "getItem",
      "outputs": [
        {
          "internalType": "address",
          "name": "",
          "type": "address"
        },
        {
          "internalType": "address",
          "name": "",
          "type": "address"
        },
        {
          "internalType": "uint256",
          "name": "",
          "type": "uint256"
        }
      ],
      "stateMutability": "view",
      "type": "function"
    }
  ],
  "bytecode": "0x60806040523480156200001157600080fd5b506040518060400160405280600e81526020017f4e4654436f6c6c65637469626c650000000000000000000000000000000000008152506040518060400160405280600481526020017f4e46544300000000000000000000000000000000000000000000000000000000815250816000908051906020019062000096929190620000b8565b508060019080519060200190620000af929190620000b8565b505050620001cd565b828054620000c69062000168565b90600052602060002090601f016020900481019282620000ea576000855562000136565b82601f106200010557805160ff191683800117855562000136565b8280016001018555821562000136579182015b828111156200013557825182559160200191906001019062000118565b5b50905062000145919062000149565b5090565b5b80821115620001645760008160009055506001016200014a565b5090565b600060028204905060018216806200018157607f821691505b602082108114156200019857620001976200019e565b5b50919050565b7f4e487b7100000000000000000000000000000000000000000000000000000000600052602260045260246000fd5b61300a80620001dd6000396000f3fe608060405234801561001057600080fd5b50600436106101165760003560e01c80635d36a364116100a2578063a22cb46511610071578063a22cb4651461031d578063b10d782414610339578063b88d4fde14610369578063c87b56dd14610385578063e985e9c5146103b557610116565b80635d36a3641461026d5780636352211e1461029f57806370a08231146102cf57806395d89b41146102ff57610116565b8063194f4795116100e9578063194f4795146101b55780631f061a29146101d357806323b872dd146102035780633129e7731461021f57806342842e0e1461025157610116565b806301ffc9a71461011b57806306fdde031461014b578063081812fc14610169578063095ea7b314610199575b600080fd5b61013560048036038101906101309190612073565b6103e5565b6040516101429190612532565b60405180910390f35b6101536104c7565b604051610160919061254d565b60405180910390f35b610183600480360381019061017e9190612172565b610559565b6040516101909190612494565b60405180910390f35b6101b360048036038101906101ae9190612033565b61059f565b005b6101bd6106b7565b6040516101ca919061272f565b60405180910390f35b6101ed60048036038101906101e89190612116565b6106c4565b6040516101fa919061272f565b60405180910390f35b61021d60048036038101906102189190611f1d565b6109e0565b005b61023960048036038101906102349190612172565b610a40565b604051610248939291906124af565b60405180910390f35b61026b60048036038101906102669190611f1d565b610ad7565b005b61028760048036038101906102829190612172565b610af7565b604051610296939291906124af565b60405180910390f35b6102b960048036038101906102b49190612172565b610b61565b6040516102c69190612494565b60405180910390f35b6102e960048036038101906102e49190611eb0565b610c13565b6040516102f6919061272f565b60405180910390f35b610307610ccb565b604051610314919061254d565b60405180910390f35b61033760048036038101906103329190611ff3565b610d5d565b005b610353600480360381019061034e91906120cd565b610d73565b6040516103609190612532565b60405180910390f35b610383600480360381019061037e9190611f70565b610da9565b005b61039f600480360381019061039a9190612172565b610e0b565b6040516103ac919061254d565b60405180910390f35b6103cf60048036038101906103ca9190611edd565b610f1e565b6040516103dc9190612532565b60405180910390f35b60007f80ac58cd000000000000000000000000000000000000000000000000000000007bffffffffffffffffffffffffffffffffffffffffffffffffffffffff1916827bffffffffffffffffffffffffffffffffffffffffffffffffffffffff191614806104b057507f5b5e139f000000000000000000000000000000000000000000000000000000007bffffffffffffffffffffffffffffffffffffffffffffffffffffffff1916827bffffffffffffffffffffffffffffffffffffffffffffffffffffffff1916145b806104c057506104bf82610fb2565b5b9050919050565b6060600080546104d6906129d1565b80601f0160208091040260200160405190810160405280929190818152602001828054610502906129d1565b801561054f5780601f106105245761010080835404028352916020019161054f565b820191906000526020600020905b81548152906001019060200180831161053257829003601f168201915b5050505050905090565b60006105648261101c565b6004600083815260200190815260200160002060009054906101000a900473ffffffffffffffffffffffffffffffffffffffff169050919050565b60006105aa82610b61565b90508073ffffffffffffffffffffffffffffffffffffffff168373ffffffffffffffffffffffffffffffffffffffff16141561061b576040517f08c379a0000000000000000000000000000000000000000000000000000000008152600401610612906126ef565b60405180910390fd5b8073ffffffffffffffffffffffffffffffffffffffff1661063a611067565b73ffffffffffffffffffffffffffffffffffffffff161480610669575061066881610663611067565b610f1e565b5b6106a8576040517f08c379a000000000000000000000000000000000000000000000000000000000815260040161069f9061264f565b60405180910390fd5b6106b2838361106f565b505050565b6000600980549050905090565b60006007836040516106d69190612459565b908152602001604051809103902060009054906101000a900460ff1615610732576040517f08c379a00000000000000000000000000000000000000000000000000000000081526004016107299061268f565b60405180910390fd5b60008210158015610744575060288211155b610783576040517f08c379a000000000000000000000000000000000000000000000000000000000815260040161077a906126af565b60405180910390fd5b600060405180606001604052803373ffffffffffffffffffffffffffffffffffffffff1681526020013373ffffffffffffffffffffffffffffffffffffffff168152602001848152509050600981908060018154018082558091505060019003906000526020600020906003020160009091909190915060008201518160000160006101000a81548173ffffffffffffffffffffffffffffffffffffffff021916908373ffffffffffffffffffffffffffffffffffffffff16021790555060208201518160010160006101000a81548173ffffffffffffffffffffffffffffffffffffffff021916908373ffffffffffffffffffffffffffffffffffffffff160217905550604082015181600201555050600060098054905090506108a83382611128565b6108b28186611146565b816008600083815260200190815260200160002060008201518160000160006101000a81548173ffffffffffffffffffffffffffffffffffffffff021916908373ffffffffffffffffffffffffffffffffffffffff16021790555060208201518160010160006101000a81548173ffffffffffffffffffffffffffffffffffffffff021916908373ffffffffffffffffffffffffffffffffffffffff1602179055506040820151816002015590505060016007866040516109739190612459565b908152602001604051809103902060006101000a81548160ff0219169083151502179055507facd3f0bb7315448676927177916d82d603042a661927f33e76f60c49da0f587f813387876040516109cd949392919061274a565b60405180910390a1809250505092915050565b6109f16109eb611067565b826111ba565b610a30576040517f08c379a0000000000000000000000000000000000000000000000000000000008152600401610a279061270f565b60405180910390fd5b610a3b83838361124f565b505050565b60008060006008600085815260200190815260200160002060000160009054906101000a900473ffffffffffffffffffffffffffffffffffffffff166008600086815260200190815260200160002060010160009054906101000a900473ffffffffffffffffffffffffffffffffffffffff1660086000878152602001908152602001600020600201549250925092509193909250565b610af283838360405180602001604052806000815250610da9565b505050565b60086020528060005260406000206000915090508060000160009054906101000a900473ffffffffffffffffffffffffffffffffffffffff16908060010160009054906101000a900473ffffffffffffffffffffffffffffffffffffffff16908060020154905083565b6000806002600084815260200190815260200160002060009054906101000a900473ffffffffffffffffffffffffffffffffffffffff169050600073ffffffffffffffffffffffffffffffffffffffff168173ffffffffffffffffffffffffffffffffffffffff161415610c0a576040517f08c379a0000000000000000000000000000000000000000000000000000000008152600401610c01906126cf565b60405180910390fd5b80915050919050565b60008073ffffffffffffffffffffffffffffffffffffffff168273ffffffffffffffffffffffffffffffffffffffff161415610c84576040517f08c379a0000000000000000000000000000000000000000000000000000000008152600401610c7b9061260f565b60405180910390fd5b600360008373ffffffffffffffffffffffffffffffffffffffff1673ffffffffffffffffffffffffffffffffffffffff168152602001908152602001600020549050919050565b606060018054610cda906129d1565b80601f0160208091040260200160405190810160405280929190818152602001828054610d06906129d1565b8015610d535780601f10610d2857610100808354040283529160200191610d53565b820191906000526020600020905b815481529060010190602001808311610d3657829003601f168201915b5050505050905090565b610d6f610d68611067565b83836114b6565b5050565b6007818051602081018201805184825260208301602085012081835280955050505050506000915054906101000a900460ff1681565b610dba610db4611067565b836111ba565b610df9576040517f08c379a0000000000000000000000000000000000000000000000000000000008152600401610df09061270f565b60405180910390fd5b610e0584848484611623565b50505050565b6060610e168261101c565b6000600660008481526020019081526020016000208054610e36906129d1565b80601f0160208091040260200160405190810160405280929190818152602001828054610e62906129d1565b8015610eaf5780601f10610e8457610100808354040283529160200191610eaf565b820191906000526020600020905b815481529060010190602001808311610e9257829003601f168201915b505050505090506000610ec061167f565b9050600081511415610ed6578192505050610f19565b600082511115610f0b578082604051602001610ef3929190612470565b60405160208183030381529060405292505050610f19565b610f1484611696565b925050505b919050565b6000600560008473ffffffffffffffffffffffffffffffffffffffff1673ffffffffffffffffffffffffffffffffffffffff16815260200190815260200160002060008373ffffffffffffffffffffffffffffffffffffffff1673ffffffffffffffffffffffffffffffffffffffff16815260200190815260200160002060009054906101000a900460ff16905092915050565b60007f01ffc9a7000000000000000000000000000000000000000000000000000000007bffffffffffffffffffffffffffffffffffffffffffffffffffffffff1916827bffffffffffffffffffffffffffffffffffffffffffffffffffffffff1916149050919050565b611025816116fe565b611064576040517f08c379a000000000000000000000000000000000000000000000000000000000815260040161105b906126cf565b60405180910390fd5b50565b600033905090565b816004600083815260200190815260200160002060006101000a81548173ffffffffffffffffffffffffffffffffffffffff021916908373ffffffffffffffffffffffffffffffffffffffff160217905550808273ffffffffffffffffffffffffffffffffffffffff166110e283610b61565b73ffffffffffffffffffffffffffffffffffffffff167f8c5be1e5ebec7d5bd14f71427d1e84f3dd0314c0f7b2291e5b200ac8c7c3b92560405160405180910390a45050565b61114282826040518060200160405280600081525061176a565b5050565b61114f826116fe565b61118e576040517f08c379a00000000000000000000000000000000000000000000000000000000081526004016111859061262f565b60405180910390fd5b806006600084815260200190815260200160002090805190602001906111b5929190611cc4565b505050565b6000806111c683610b61565b90508073ffffffffffffffffffffffffffffffffffffffff168473ffffffffffffffffffffffffffffffffffffffff16148061120857506112078185610f1e565b5b8061124657508373ffffffffffffffffffffffffffffffffffffffff1661122e84610559565b73ffffffffffffffffffffffffffffffffffffffff16145b91505092915050565b8273ffffffffffffffffffffffffffffffffffffffff1661126f82610b61565b73ffffffffffffffffffffffffffffffffffffffff16146112c5576040517f08c379a00000000000000000000000000000000000000000000000000000000081526004016112bc9061258f565b60405180910390fd5b600073ffffffffffffffffffffffffffffffffffffffff168273ffffffffffffffffffffffffffffffffffffffff161415611335576040517f08c379a000000000000000000000000000000000000000000000000000000000815260040161132c906125cf565b60405180910390fd5b6113408383836117c5565b61134b60008261106f565b6001600360008573ffffffffffffffffffffffffffffffffffffffff1673ffffffffffffffffffffffffffffffffffffffff168152602001908152602001600020600082825461139b91906128e7565b925050819055506001600360008473ffffffffffffffffffffffffffffffffffffffff1673ffffffffffffffffffffffffffffffffffffffff16815260200190815260200160002060008282546113f29190612860565b92505081905550816002600083815260200190815260200160002060006101000a81548173ffffffffffffffffffffffffffffffffffffffff021916908373ffffffffffffffffffffffffffffffffffffffff160217905550808273ffffffffffffffffffffffffffffffffffffffff168473ffffffffffffffffffffffffffffffffffffffff167fddf252ad1be2c89b69c2b068fc378daa952ba7f163c4a11628f55a4df523b3ef60405160405180910390a46114b18383836117ca565b505050565b8173ffffffffffffffffffffffffffffffffffffffff168373ffffffffffffffffffffffffffffffffffffffff161415611525576040517f08c379a000000000000000000000000000000000000000000000000000000000815260040161151c906125ef565b60405180910390fd5b80600560008573ffffffffffffffffffffffffffffffffffffffff1673ffffffffffffffffffffffffffffffffffffffff16815260200190815260200160002060008473ffffffffffffffffffffffffffffffffffffffff1673ffffffffffffffffffffffffffffffffffffffff16815260200190815260200160002060006101000a81548160ff0219169083151502179055508173ffffffffffffffffffffffffffffffffffffffff168373ffffffffffffffffffffffffffffffffffffffff167f17307eab39ab6107e8899845ad3d59bd9653f200f220920489ca2b5937696c31836040516116169190612532565b60405180910390a3505050565b61162e84848461124f565b61163a848484846117cf565b611679576040517f08c379a00000000000000000000000000000000000000000000000000000000081526004016116709061256f565b60405180910390fd5b50505050565b606060405180602001604052806000815250905090565b60606116a18261101c565b60006116ab61167f565b905060008151116116cb57604051806020016040528060008152506116f6565b806116d584611966565b6040516020016116e6929190612470565b6040516020818303038152906040525b915050919050565b60008073ffffffffffffffffffffffffffffffffffffffff166002600084815260200190815260200160002060009054906101000a900473ffffffffffffffffffffffffffffffffffffffff1673ffffffffffffffffffffffffffffffffffffffff1614159050919050565b6117748383611ac7565b61178160008484846117cf565b6117c0576040517f08c379a00000000000000000000000000000000000000000000000000000000081526004016117b79061256f565b60405180910390fd5b505050565b505050565b505050565b60006117f08473ffffffffffffffffffffffffffffffffffffffff16611ca1565b15611959578373ffffffffffffffffffffffffffffffffffffffff1663150b7a02611819611067565b8786866040518563ffffffff1660e01b815260040161183b94939291906124e6565b602060405180830381600087803b15801561185557600080fd5b505af192505050801561188657506040513d601f19601f8201168201806040525081019061188391906120a0565b60015b611909573d80600081146118b6576040519150601f19603f3d011682016040523d82523d6000602084013e6118bb565b606091505b50600081511415611901576040517f08c379a00000000000000000000000000000000000000000000000000000000081526004016118f89061256f565b60405180910390fd5b805181602001fd5b63150b7a0260e01b7bffffffffffffffffffffffffffffffffffffffffffffffffffffffff1916817bffffffffffffffffffffffffffffffffffffffffffffffffffffffff19161491505061195e565b600190505b949350505050565b606060008214156119ae576040518060400160405280600181526020017f30000000000000000000000000000000000000000000000000000000000000008152509050611ac2565b600082905060005b600082146119e05780806119c990612a34565b915050600a826119d991906128b6565b91506119b6565b60008167ffffffffffffffff8111156119fc576119fb612b6a565b5b6040519080825280601f01601f191660200182016040528015611a2e5781602001600182028036833780820191505090505b5090505b60008514611abb57600182611a4791906128e7565b9150600a85611a569190612a7d565b6030611a629190612860565b60f81b818381518110611a7857611a77612b3b565b5b60200101907effffffffffffffffffffffffffffffffffffffffffffffffffffffffffffff1916908160001a905350600a85611ab491906128b6565b9450611a32565b8093505050505b919050565b600073ffffffffffffffffffffffffffffffffffffffff168273ffffffffffffffffffffffffffffffffffffffff161415611b37576040517f08c379a0000000000000000000000000000000000000000000000000000000008152600401611b2e9061266f565b60405180910390fd5b611b40816116fe565b15611b80576040517f08c379a0000000000000000000000000000000000000000000000000000000008152600401611b77906125af565b60405180910390fd5b611b8c600083836117c5565b6001600360008473ffffffffffffffffffffffffffffffffffffffff1673ffffffffffffffffffffffffffffffffffffffff1681526020019081526020016000206000828254611bdc9190612860565b92505081905550816002600083815260200190815260200160002060006101000a81548173ffffffffffffffffffffffffffffffffffffffff021916908373ffffffffffffffffffffffffffffffffffffffff160217905550808273ffffffffffffffffffffffffffffffffffffffff16600073ffffffffffffffffffffffffffffffffffffffff167fddf252ad1be2c89b69c2b068fc378daa952ba7f163c4a11628f55a4df523b3ef60405160405180910390a4611c9d600083836117ca565b5050565b6000808273ffffffffffffffffffffffffffffffffffffffff163b119050919050565b828054611cd0906129d1565b90600052602060002090601f016020900481019282611cf25760008555611d39565b82601f10611d0b57805160ff1916838001178555611d39565b82800160010185558215611d39579182015b82811115611d38578251825591602001919060010190611d1d565b5b509050611d469190611d4a565b5090565b5b80821115611d63576000816000905550600101611d4b565b5090565b6000611d7a611d75846127bb565b612796565b905082815260208101848484011115611d9657611d95612b9e565b5b611da184828561298f565b509392505050565b6000611dbc611db7846127ec565b612796565b905082815260208101848484011115611dd857611dd7612b9e565b5b611de384828561298f565b509392505050565b600081359050611dfa81612f78565b92915050565b600081359050611e0f81612f8f565b92915050565b600081359050611e2481612fa6565b92915050565b600081519050611e3981612fa6565b92915050565b600082601f830112611e5457611e53612b99565b5b8135611e64848260208601611d67565b91505092915050565b600082601f830112611e8257611e81612b99565b5b8135611e92848260208601611da9565b91505092915050565b600081359050611eaa81612fbd565b92915050565b600060208284031215611ec657611ec5612ba8565b5b6000611ed484828501611deb565b91505092915050565b60008060408385031215611ef457611ef3612ba8565b5b6000611f0285828601611deb565b9250506020611f1385828601611deb565b9150509250929050565b600080600060608486031215611f3657611f35612ba8565b5b6000611f4486828701611deb565b9350506020611f5586828701611deb565b9250506040611f6686828701611e9b565b9150509250925092565b60008060008060808587031215611f8a57611f89612ba8565b5b6000611f9887828801611deb565b9450506020611fa987828801611deb565b9350506040611fba87828801611e9b565b925050606085013567ffffffffffffffff811115611fdb57611fda612ba3565b5b611fe787828801611e3f565b91505092959194509250565b6000806040838503121561200a57612009612ba8565b5b600061201885828601611deb565b925050602061202985828601611e00565b9150509250929050565b6000806040838503121561204a57612049612ba8565b5b600061205885828601611deb565b925050602061206985828601611e9b565b9150509250929050565b60006020828403121561208957612088612ba8565b5b600061209784828501611e15565b91505092915050565b6000602082840312156120b6576120b5612ba8565b5b60006120c484828501611e2a565b91505092915050565b6000602082840312156120e3576120e2612ba8565b5b600082013567ffffffffffffffff81111561210157612100612ba3565b5b61210d84828501611e6d565b91505092915050565b6000806040838503121561212d5761212c612ba8565b5b600083013567ffffffffffffffff81111561214b5761214a612ba3565b5b61215785828601611e6d565b925050602061216885828601611e9b565b9150509250929050565b60006020828403121561218857612187612ba8565b5b600061219684828501611e9b565b91505092915050565b6121a88161291b565b82525050565b6121b78161292d565b82525050565b60006121c88261281d565b6121d28185612833565b93506121e281856020860161299e565b6121eb81612bad565b840191505092915050565b600061220182612828565b61220b8185612844565b935061221b81856020860161299e565b61222481612bad565b840191505092915050565b600061223a82612828565b6122448185612855565b935061225481856020860161299e565b80840191505092915050565b600061226d603283612844565b915061227882612bbe565b604082019050919050565b6000612290602583612844565b915061229b82612c0d565b604082019050919050565b60006122b3601c83612844565b91506122be82612c5c565b602082019050919050565b60006122d6602483612844565b91506122e182612c85565b604082019050919050565b60006122f9601983612844565b915061230482612cd4565b602082019050919050565b600061231c602983612844565b915061232782612cfd565b604082019050919050565b600061233f602e83612844565b915061234a82612d4c565b604082019050919050565b6000612362603e83612844565b915061236d82612d9b565b604082019050919050565b6000612385602083612844565b915061239082612dea565b602082019050919050565b60006123a8603383612844565b91506123b382612e13565b604082019050919050565b60006123cb602483612844565b91506123d682612e62565b604082019050919050565b60006123ee601883612844565b91506123f982612eb1565b602082019050919050565b6000612411602183612844565b915061241c82612eda565b604082019050919050565b6000612434602e83612844565b915061243f82612f29565b604082019050919050565b61245381612985565b82525050565b6000612465828461222f565b915081905092915050565b600061247c828561222f565b9150612488828461222f565b91508190509392505050565b60006020820190506124a9600083018461219f565b92915050565b60006060820190506124c4600083018661219f565b6124d1602083018561219f565b6124de604083018461244a565b949350505050565b60006080820190506124fb600083018761219f565b612508602083018661219f565b612515604083018561244a565b818103606083015261252781846121bd565b905095945050505050565b600060208201905061254760008301846121ae565b92915050565b6000602082019050818103600083015261256781846121f6565b905092915050565b6000602082019050818103600083015261258881612260565b9050919050565b600060208201905081810360008301526125a881612283565b9050919050565b600060208201905081810360008301526125c8816122a6565b9050919050565b600060208201905081810360008301526125e8816122c9565b9050919050565b60006020820190508181036000830152612608816122ec565b9050919050565b600060208201905081810360008301526126288161230f565b9050919050565b6000602082019050818103600083015261264881612332565b9050919050565b6000602082019050818103600083015261266881612355565b9050919050565b6000602082019050818103600083015261268881612378565b9050919050565b600060208201905081810360008301526126a88161239b565b9050919050565b600060208201905081810360008301526126c8816123be565b9050919050565b600060208201905081810360008301526126e8816123e1565b9050919050565b6000602082019050818103600083015261270881612404565b9050919050565b6000602082019050818103600083015261272881612427565b9050919050565b6000602082019050612744600083018461244a565b92915050565b600060808201905061275f600083018761244a565b61276c602083018661219f565b818103604083015261277e81856121f6565b905061278d606083018461244a565b95945050505050565b60006127a06127b1565b90506127ac8282612a03565b919050565b6000604051905090565b600067ffffffffffffffff8211156127d6576127d5612b6a565b5b6127df82612bad565b9050602081019050919050565b600067ffffffffffffffff82111561280757612806612b6a565b5b61281082612bad565b9050602081019050919050565b600081519050919050565b600081519050919050565b600082825260208201905092915050565b600082825260208201905092915050565b600081905092915050565b600061286b82612985565b915061287683612985565b9250827fffffffffffffffffffffffffffffffffffffffffffffffffffffffffffffffff038211156128ab576128aa612aae565b5b828201905092915050565b60006128c182612985565b91506128cc83612985565b9250826128dc576128db612add565b5b828204905092915050565b60006128f282612985565b91506128fd83612985565b9250828210156129105761290f612aae565b5b828203905092915050565b600061292682612965565b9050919050565b60008115159050919050565b60007fffffffff0000000000000000000000000000000000000000000000000000000082169050919050565b600073ffffffffffffffffffffffffffffffffffffffff82169050919050565b6000819050919050565b82818337600083830152505050565b60005b838110156129bc5780820151818401526020810190506129a1565b838111156129cb576000848401525b50505050565b600060028204905060018216806129e957607f821691505b602082108114156129fd576129fc612b0c565b5b50919050565b612a0c82612bad565b810181811067ffffffffffffffff82111715612a2b57612a2a612b6a565b5b80604052505050565b6000612a3f82612985565b91507fffffffffffffffffffffffffffffffffffffffffffffffffffffffffffffffff821415612a7257612a71612aae565b5b600182019050919050565b6000612a8882612985565b9150612a9383612985565b925082612aa357612aa2612add565b5b828206905092915050565b7f4e487b7100000000000000000000000000000000000000000000000000000000600052601160045260246000fd5b7f4e487b7100000000000000000000000000000000000000000000000000000000600052601260045260246000fd5b7f4e487b7100000000000000000000000000000000000000000000000000000000600052602260045260246000fd5b7f4e487b7100000000000000000000000000000000000000000000000000000000600052603260045260246000fd5b7f4e487b7100000000000000000000000000000000000000000000000000000000600052604160045260246000fd5b600080fd5b600080fd5b600080fd5b600080fd5b6000601f19601f8301169050919050565b7f4552433732313a207472616e7366657220746f206e6f6e20455243373231526560008201527f63656976657220696d706c656d656e7465720000000000000000000000000000602082015250565b7f4552433732313a207472616e736665722066726f6d20696e636f72726563742060008201527f6f776e6572000000000000000000000000000000000000000000000000000000602082015250565b7f4552433732313a20746f6b656e20616c7265616479206d696e74656400000000600082015250565b7f4552433732313a207472616e7366657220746f20746865207a65726f2061646460008201527f7265737300000000000000000000000000000000000000000000000000000000602082015250565b7f4552433732313a20617070726f766520746f2063616c6c657200000000000000600082015250565b7f4552433732313a2061646472657373207a65726f206973206e6f74206120766160008201527f6c6964206f776e65720000000000000000000000000000000000000000000000602082015250565b7f45524337323155524953746f726167653a2055524920736574206f66206e6f6e60008201527f6578697374656e7420746f6b656e000000000000000000000000000000000000602082015250565b7f4552433732313a20617070726f76652063616c6c6572206973206e6f7420746f60008201527f6b656e206f776e6572206e6f7220617070726f76656420666f7220616c6c0000602082015250565b7f4552433732313a206d696e7420746f20746865207a65726f2061646472657373600082015250565b7f54686973206d657461646174612068617320616c7265616479206265656e207560008201527f73656420746f206d696e7420616e204e46542e00000000000000000000000000602082015250565b7f526f79616c74696573206d757374206265206265747765656e20302520616e6460008201527f2034302500000000000000000000000000000000000000000000000000000000602082015250565b7f4552433732313a20696e76616c696420746f6b656e2049440000000000000000600082015250565b7f4552433732313a20617070726f76616c20746f2063757272656e74206f776e6560008201527f7200000000000000000000000000000000000000000000000000000000000000602082015250565b7f4552433732313a2063616c6c6572206973206e6f7420746f6b656e206f776e6560008201527f72206e6f7220617070726f766564000000000000000000000000000000000000602082015250565b612f818161291b565b8114612f8c57600080fd5b50565b612f988161292d565b8114612fa357600080fd5b50565b612faf81612939565b8114612fba57600080fd5b50565b612fc681612985565b8114612fd157600080fd5b5056fea2646970667358221220fd51059c1c1feda9786e661864bc0a15acd27824bd8ad2a7dcdb3c7189b36e7c64736f6c63430008060033",
  "immutableReferences": {},
  "source": "// SPDX-License-Identifier: MIT\npragma solidity ^0.8.6;\n\nimport \"../node_modules/@openzeppelin/contracts/token/ERC721/extensions/ERC721URIStorage.sol\";\nimport \"../node_modules/@openzeppelin/contracts/utils/math/SafeMath.sol\";\n\n// .\n// https://docs.avax.network/community/tutorials-contest/avalanche-erc721-tutorial#writing-our-first-erc721-contract\n\ncontract Collectible is ERC721URIStorage {\n    mapping(string => bool) public hasBeenMinted;\n    mapping(uint256 => Item) public tokenIdToItem;\n    struct Item {\n        address owner;\n        address creator;\n        uint256 royalty;\n    }\n    Item[] private items;\n    event ItemMinted(uint256 tokenId, address creator, string metadata, uint256 royalty);\n    \n    constructor() ERC721(\"NFTCollectible\", \"NFTC\") {}\n\n    function createCollectible(string memory metadata, uint256 royalty) public returns (uint256)\n    {\n        require(\n            !hasBeenMinted[metadata],\n            \"This metadata has already been used to mint an NFT.\"\n        );\n        require(\n            royalty >= 0 && royalty <= 40,\n            \"Royalties must be between 0% and 40%\"\n        );\n        Item memory newItem = Item(msg.sender, msg.sender, royalty);\n        items.push(newItem);\n        uint256 newItemId = items.length;\n        _safeMint(msg.sender, newItemId);\n        _setTokenURI(newItemId, metadata);\n        tokenIdToItem[newItemId] = newItem;\n        hasBeenMinted[metadata] = true;\n        emit ItemMinted(newItemId, msg.sender, metadata, royalty);\n        return newItemId;\n    }\n\n    function getItemsLength() public view returns (uint256) {\n        return items.length;\n    }\n    \n    function getItem(uint256 tokenId) public view returns (address, address, uint256)\n    {\n        return (tokenIdToItem[tokenId].owner, tokenIdToItem[tokenId].creator, tokenIdToItem[tokenId].royalty);\n    }\n}\n\n\n",
  "sourcePath": "/Users/clonftteam/Desktop/learning/Avalanche/ERC721 Tutorial/contracts/Collectible.sol",
  "compiler": {
    "name": "solc",
    "version": "0.8.6+commit.11564f7e.Emscripten.clang"
  },
  "schemaVersion": "3.4.8",
  "updatedAt": "2022-07-18T02:39:57.922Z",
  "devdoc": {
    "kind": "dev",
    "methods": {
      "approve(address,uint256)": {
        "details": "See {IERC721-approve}."
      },
      "balanceOf(address)": {
        "details": "See {IERC721-balanceOf}."
      },
      "getApproved(uint256)": {
        "details": "See {IERC721-getApproved}."
      },
      "isApprovedForAll(address,address)": {
        "details": "See {IERC721-isApprovedForAll}."
      },
      "name()": {
        "details": "See {IERC721Metadata-name}."
      },
      "ownerOf(uint256)": {
        "details": "See {IERC721-ownerOf}."
      },
      "safeTransferFrom(address,address,uint256)": {
        "details": "See {IERC721-safeTransferFrom}."
      },
      "safeTransferFrom(address,address,uint256,bytes)": {
        "details": "See {IERC721-safeTransferFrom}."
      },
      "setApprovalForAll(address,bool)": {
        "details": "See {IERC721-setApprovalForAll}."
      },
      "supportsInterface(bytes4)": {
        "details": "See {IERC165-supportsInterface}."
      },
      "symbol()": {
        "details": "See {IERC721Metadata-symbol}."
      },
      "tokenURI(uint256)": {
        "details": "See {IERC721Metadata-tokenURI}."
      },
      "transferFrom(address,address,uint256)": {
        "details": "See {IERC721-transferFrom}."
      }
    },
    "version": 1
  },
  "userdoc": {
    "kind": "user",
    "methods": {},
    "version": 1
  }
}