{
  "contractName": "Marketplace",
  "abi": [
    {
      "anonymous": false,
      "inputs": [
        {
          "indexed": true,
          "internalType": "address",
          "name": "owner",
          "type": "address"
        },
        {
          "indexed": true,
          "internalType": "address",
          "name": "approved",
          "type": "address"
        },
        {
          "indexed": true,
          "internalType": "uint256",
          "name": "tokenId",
          "type": "uint256"
        }
      ],
      "name": "Approval",
      "type": "event"
    },
    {
      "anonymous": false,
      "inputs": [
        {
          "indexed": true,
          "internalType": "address",
          "name": "owner",
          "type": "address"
        },
        {
          "indexed": true,
          "internalType": "address",
          "name": "operator",
          "type": "address"
        },
        {
          "indexed": false,
          "internalType": "bool",
          "name": "approved",
          "type": "bool"
        }
      ],
      "name": "ApprovalForAll",
      "type": "event"
    },
    {
      "anonymous": false,
      "inputs": [
        {
          "indexed": false,
          "internalType": "uint256",
          "name": "tokenId",
          "type": "uint256"
        },
        {
          "indexed": false,
          "internalType": "uint256",
          "name": "price",
          "type": "uint256"
        },
        {
          "indexed": false,
          "internalType": "address",
          "name": "buyer",
          "type": "address"
        }
      ],
      "name": "ItemBought",
      "type": "event"
    },
    {
      "anonymous": false,
      "inputs": [
        {
          "indexed": false,
          "internalType": "uint256",
          "name": "tokenId",
          "type": "uint256"
        },
        {
          "indexed": false,
          "internalType": "uint256",
          "name": "price",
          "type": "uint256"
        },
        {
          "indexed": false,
          "internalType": "address",
          "name": "seller",
          "type": "address"
        }
      ],
      "name": "ItemListed",
      "type": "event"
    },
    {
      "anonymous": false,
      "inputs": [
        {
          "indexed": false,
          "internalType": "uint256",
          "name": "tokenId",
          "type": "uint256"
        },
        {
          "indexed": false,
          "internalType": "address",
          "name": "creator",
          "type": "address"
        },
        {
          "indexed": false,
          "internalType": "string",
          "name": "metadata",
          "type": "string"
        },
        {
          "indexed": false,
          "internalType": "uint256",
          "name": "royalty",
          "type": "uint256"
        }
      ],
      "name": "ItemMinted",
      "type": "event"
    },
    {
      "anonymous": false,
      "inputs": [
        {
          "indexed": false,
          "internalType": "uint256",
          "name": "tokenId",
          "type": "uint256"
        },
        {
          "indexed": false,
          "internalType": "uint256",
          "name": "price",
          "type": "uint256"
        },
        {
          "indexed": false,
          "internalType": "address",
          "name": "seller",
          "type": "address"
        }
      ],
      "name": "ListingCancelled",
      "type": "event"
    },
    {
      "anonymous": false,
      "inputs": [
        {
          "indexed": true,
          "internalType": "address",
          "name": "from",
          "type": "address"
        },
        {
          "indexed": true,
          "internalType": "address",
          "name": "to",
          "type": "address"
        },
        {
          "indexed": true,
          "internalType": "uint256",
          "name": "tokenId",
          "type": "uint256"
        }
      ],
      "name": "Transfer",
      "type": "event"
    },
    {
      "inputs": [
        {
          "internalType": "address",
          "name": "to",
          "type": "address"
        },
        {
          "internalType": "uint256",
          "name": "tokenId",
          "type": "uint256"
        }
      ],
      "name": "approve",
      "outputs": [],
      "stateMutability": "nonpayable",
      "type": "function"
    },
    {
      "inputs": [
        {
          "internalType": "address",
          "name": "owner",
          "type": "address"
        }
      ],
      "name": "balanceOf",
      "outputs": [
        {
          "internalType": "uint256",
          "name": "",
          "type": "uint256"
        }
      ],
      "stateMutability": "view",
      "type": "function"
    },
    {
      "inputs": [
        {
          "internalType": "uint256",
          "name": "",
          "type": "uint256"
        }
      ],
      "name": "claimableByAccount",
      "outputs": [
        {
          "internalType": "address",
          "name": "",
          "type": "address"
        }
      ],
      "stateMutability": "view",
      "type": "function"
    },
    {
      "inputs": [
        {
          "internalType": "string",
          "name": "metadata",
          "type": "string"
        },
        {
          "internalType": "uint256",
          "name": "royalty",
          "type": "uint256"
        }
      ],
      "name": "createCollectible",
      "outputs": [
        {
          "internalType": "uint256",
          "name": "",
          "type": "uint256"
        }
      ],
      "stateMutability": "nonpayable",
      "type": "function"
    },
    {
      "inputs": [
        {
          "internalType": "uint256",
          "name": "tokenId",
          "type": "uint256"
        }
      ],
      "name": "getApproved",
      "outputs": [
        {
          "internalType": "address",
          "name": "",
          "type": "address"
        }
      ],
      "stateMutability": "view",
      "type": "function"
    },
    {
      "inputs": [
        {
          "internalType": "uint256",
          "name": "tokenId",
          "type": "uint256"
        }
      ],
      "name": "getItem",
      "outputs": [
        {
          "internalType": "address",
          "name": "",
          "type": "address"
        },
        {
          "internalType": "address",
          "name": "",
          "type": "address"
        },
        {
          "internalType": "uint256",
          "name": "",
          "type": "uint256"
        }
      ],
      "stateMutability": "view",
      "type": "function"
    },
    {
      "inputs": [],
      "name": "getItemsLength",
      "outputs": [
        {
          "internalType": "uint256",
          "name": "",
          "type": "uint256"
        }
      ],
      "stateMutability": "view",
      "type": "function"
    },
    {
      "inputs": [
        {
          "internalType": "uint256",
          "name": "",
          "type": "uint256"
        }
      ],
      "name": "hasBeenListed",
      "outputs": [
        {
          "internalType": "bool",
          "name": "",
          "type": "bool"
        }
      ],
      "stateMutability": "view",
      "type": "function"
    },
    {
      "inputs": [
        {
          "internalType": "string",
          "name": "",
          "type": "string"
        }
      ],
      "name": "hasBeenMinted",
      "outputs": [
        {
          "internalType": "bool",
          "name": "",
          "type": "bool"
        }
      ],
      "stateMutability": "view",
      "type": "function"
    },
    {
      "inputs": [
        {
          "internalType": "address",
          "name": "owner",
          "type": "address"
        },
        {
          "internalType": "address",
          "name": "operator",
          "type": "address"
        }
      ],
      "name": "isApprovedForAll",
      "outputs": [
        {
          "internalType": "bool",
          "name": "",
          "type": "bool"
        }
      ],
      "stateMutability": "view",
      "type": "function"
    },
    {
      "inputs": [],
      "name": "name",
      "outputs": [
        {
          "internalType": "string",
          "name": "",
          "type": "string"
        }
      ],
      "stateMutability": "view",
      "type": "function"
    },
    {
      "inputs": [
        {
          "internalType": "uint256",
          "name": "tokenId",
          "type": "uint256"
        }
      ],
      "name": "ownerOf",
      "outputs": [
        {
          "internalType": "address",
          "name": "",
          "type": "address"
        }
      ],
      "stateMutability": "view",
      "type": "function"
    },
    {
      "inputs": [
        {
          "internalType": "address",
          "name": "from",
          "type": "address"
        },
        {
          "internalType": "address",
          "name": "to",
          "type": "address"
        },
        {
          "internalType": "uint256",
          "name": "tokenId",
          "type": "uint256"
        }
      ],
      "name": "safeTransferFrom",
      "outputs": [],
      "stateMutability": "nonpayable",
      "type": "function"
    },
    {
      "inputs": [
        {
          "internalType": "address",
          "name": "from",
          "type": "address"
        },
        {
          "internalType": "address",
          "name": "to",
          "type": "address"
        },
        {
          "internalType": "uint256",
          "name": "tokenId",
          "type": "uint256"
        },
        {
          "internalType": "bytes",
          "name": "data",
          "type": "bytes"
        }
      ],
      "name": "safeTransferFrom",
      "outputs": [],
      "stateMutability": "nonpayable",
      "type": "function"
    },
    {
      "inputs": [
        {
          "internalType": "address",
          "name": "operator",
          "type": "address"
        },
        {
          "internalType": "bool",
          "name": "approved",
          "type": "bool"
        }
      ],
      "name": "setApprovalForAll",
      "outputs": [],
      "stateMutability": "nonpayable",
      "type": "function"
    },
    {
      "inputs": [
        {
          "internalType": "bytes4",
          "name": "interfaceId",
          "type": "bytes4"
        }
      ],
      "name": "supportsInterface",
      "outputs": [
        {
          "internalType": "bool",
          "name": "",
          "type": "bool"
        }
      ],
      "stateMutability": "view",
      "type": "function"
    },
    {
      "inputs": [],
      "name": "symbol",
      "outputs": [
        {
          "internalType": "string",
          "name": "",
          "type": "string"
        }
      ],
      "stateMutability": "view",
      "type": "function"
    },
    {
      "inputs": [
        {
          "internalType": "uint256",
          "name": "",
          "type": "uint256"
        }
      ],
      "name": "tokenIdToItem",
      "outputs": [
        {
          "internalType": "address",
          "name": "owner",
          "type": "address"
        },
        {
          "internalType": "address",
          "name": "creator",
          "type": "address"
        },
        {
          "internalType": "uint256",
          "name": "royalty",
          "type": "uint256"
        }
      ],
      "stateMutability": "view",
      "type": "function"
    },
    {
      "inputs": [
        {
          "internalType": "uint256",
          "name": "",
          "type": "uint256"
        }
      ],
      "name": "tokenIdToListing",
      "outputs": [
        {
          "internalType": "uint256",
          "name": "price",
          "type": "uint256"
        },
        {
          "internalType": "address",
          "name": "owner",
          "type": "address"
        }
      ],
      "stateMutability": "view",
      "type": "function"
    },
    {
      "inputs": [
        {
          "internalType": "uint256",
          "name": "tokenId",
          "type": "uint256"
        }
      ],
      "name": "tokenURI",
      "outputs": [
        {
          "internalType": "string",
          "name": "",
          "type": "string"
        }
      ],
      "stateMutability": "view",
      "type": "function"
    },
    {
      "inputs": [
        {
          "internalType": "address",
          "name": "from",
          "type": "address"
        },
        {
          "internalType": "address",
          "name": "to",
          "type": "address"
        },
        {
          "internalType": "uint256",
          "name": "tokenId",
          "type": "uint256"
        }
      ],
      "name": "transferFrom",
      "outputs": [],
      "stateMutability": "nonpayable",
      "type": "function"
    },
    {
      "inputs": [
        {
          "internalType": "uint256",
          "name": "tokenId",
          "type": "uint256"
        },
        {
          "internalType": "uint256",
          "name": "price",
          "type": "uint256"
        }
      ],
      "name": "listItem",
      "outputs": [],
      "stateMutability": "nonpayable",
      "type": "function"
    },
    {
      "inputs": [
        {
          "internalType": "uint256",
          "name": "tokenId",
          "type": "uint256"
        }
      ],
      "name": "cancelListing",
      "outputs": [],
      "stateMutability": "nonpayable",
      "type": "function"
    },
    {
      "inputs": [
        {
          "internalType": "uint256",
          "name": "tokenId",
          "type": "uint256"
        }
      ],
      "name": "buyItem",
      "outputs": [],
      "stateMutability": "payable",
      "type": "function"
    },
    {
      "inputs": [
        {
          "internalType": "uint256",
          "name": "tokenId",
          "type": "uint256"
        }
      ],
      "name": "getListing",
      "outputs": [
        {
          "internalType": "uint256",
          "name": "",
          "type": "uint256"
        },
        {
          "internalType": "address",
          "name": "",
          "type": "address"
        }
      ],
      "stateMutability": "view",
      "type": "function"
    }
  ],
  "bytecode": "0x60806040523480156200001157600080fd5b506040518060400160405280600e81526020017f4e4654436f6c6c65637469626c650000000000000000000000000000000000008152506040518060400160405280600481526020017f4e46544300000000000000000000000000000000000000000000000000000000815250816000908051906020019062000096929190620000b8565b508060019080519060200190620000af929190620000b8565b505050620001cd565b828054620000c69062000168565b90600052602060002090601f016020900481019282620000ea576000855562000136565b82601f106200010557805160ff191683800117855562000136565b8280016001018555821562000136579182015b828111156200013557825182559160200191906001019062000118565b5b50905062000145919062000149565b5090565b5b80821115620001645760008160009055506001016200014a565b5090565b600060028204905060018216806200018157607f821691505b602082108114156200019857620001976200019e565b5b50919050565b7f4e487b7100000000000000000000000000000000000000000000000000000000600052602260045260246000fd5b61407980620001dd6000396000f3fe6080604052600436106101665760003560e01c80635d36a364116100d1578063b10d78241161008a578063c87b56dd11610064578063c87b56dd146105af578063e7fb74c7146105ec578063e985e9c514610608578063ffde808d1461064557610166565b8063b10d78241461050c578063b88d4fde14610549578063ba6dc0d21461057257610166565b80635d36a364146103d65780636352211e1461041557806370a0823114610452578063883efa671461048f57806395d89b41146104b8578063a22cb465146104e357610166565b80631f061a29116101235780631f061a29146102a25780632337e853146102df57806323b872dd1461031c578063305a67a8146103455780633129e7731461036e57806342842e0e146103ad57610166565b806301ffc9a71461016b57806306fdde03146101a8578063081812fc146101d3578063095ea7b314610210578063107a274a14610239578063194f479514610277575b600080fd5b34801561017757600080fd5b50610192600480360381019061018d9190612c36565b610683565b60405161019f919061323f565b60405180910390f35b3480156101b457600080fd5b506101bd610765565b6040516101ca919061325a565b60405180910390f35b3480156101df57600080fd5b506101fa60048036038101906101f59190612d35565b6107f7565b60405161020791906131a1565b60405180910390f35b34801561021c57600080fd5b5061023760048036038101906102329190612bf6565b61083d565b005b34801561024557600080fd5b50610260600480360381019061025b9190612d35565b610955565b60405161026e929190613517565b60405180910390f35b34801561028357600080fd5b5061028c6109af565b60405161029991906134fc565b60405180910390f35b3480156102ae57600080fd5b506102c960048036038101906102c49190612cd9565b6109bc565b6040516102d691906134fc565b60405180910390f35b3480156102eb57600080fd5b5061030660048036038101906103019190612d35565b610cd8565b604051610313919061323f565b60405180910390f35b34801561032857600080fd5b50610343600480360381019061033e9190612ae0565b610cf8565b005b34801561035157600080fd5b5061036c60048036038101906103679190612d35565b610d58565b005b34801561037a57600080fd5b5061039560048036038101906103909190612d35565b610efe565b6040516103a4939291906131bc565b60405180910390f35b3480156103b957600080fd5b506103d460048036038101906103cf9190612ae0565b610f95565b005b3480156103e257600080fd5b506103fd60048036038101906103f89190612d35565b610fb5565b60405161040c939291906131bc565b60405180910390f35b34801561042157600080fd5b5061043c60048036038101906104379190612d35565b61101f565b60405161044991906131a1565b60405180910390f35b34801561045e57600080fd5b5061047960048036038101906104749190612a73565b6110d1565b60405161048691906134fc565b60405180910390f35b34801561049b57600080fd5b506104b660048036038101906104b19190612d62565b611189565b005b3480156104c457600080fd5b506104cd6113bc565b6040516104da919061325a565b60405180910390f35b3480156104ef57600080fd5b5061050a60048036038101906105059190612bb6565b61144e565b005b34801561051857600080fd5b50610533600480360381019061052e9190612c90565b611464565b604051610540919061323f565b60405180910390f35b34801561055557600080fd5b50610570600480360381019061056b9190612b33565b61149a565b005b34801561057e57600080fd5b5061059960048036038101906105949190612d35565b6114fc565b6040516105a691906131a1565b60405180910390f35b3480156105bb57600080fd5b506105d660048036038101906105d19190612d35565b61152f565b6040516105e3919061325a565b60405180910390f35b61060660048036038101906106019190612d35565b611642565b005b34801561061457600080fd5b5061062f600480360381019061062a9190612aa0565b611a5b565b60405161063c919061323f565b60405180910390f35b34801561065157600080fd5b5061066c60048036038101906106679190612d35565b611aef565b60405161067a929190613517565b60405180910390f35b60007f80ac58cd000000000000000000000000000000000000000000000000000000007bffffffffffffffffffffffffffffffffffffffffffffffffffffffff1916827bffffffffffffffffffffffffffffffffffffffffffffffffffffffff1916148061074e57507f5b5e139f000000000000000000000000000000000000000000000000000000007bffffffffffffffffffffffffffffffffffffffffffffffffffffffff1916827bffffffffffffffffffffffffffffffffffffffffffffffffffffffff1916145b8061075e575061075d82611b33565b5b9050919050565b60606000805461077490613863565b80601f01602080910402602001604051908101604052809291908181526020018280546107a090613863565b80156107ed5780601f106107c2576101008083540402835291602001916107ed565b820191906000526020600020905b8154815290600101906020018083116107d057829003601f168201915b5050505050905090565b600061080282611b9d565b6004600083815260200190815260200160002060009054906101000a900473ffffffffffffffffffffffffffffffffffffffff169050919050565b60006108488261101f565b90508073ffffffffffffffffffffffffffffffffffffffff168373ffffffffffffffffffffffffffffffffffffffff1614156108b9576040517f08c379a00000000000000000000000000000000000000000000000000000000081526004016108b09061347c565b60405180910390fd5b8073ffffffffffffffffffffffffffffffffffffffff166108d8611be8565b73ffffffffffffffffffffffffffffffffffffffff161480610907575061090681610901611be8565b611a5b565b5b610946576040517f08c379a000000000000000000000000000000000000000000000000000000000815260040161093d906133bc565b60405180910390fd5b6109508383611bf0565b505050565b600080600a600084815260200190815260200160002060000154600a600085815260200190815260200160002060010160009054906101000a900473ffffffffffffffffffffffffffffffffffffffff1691509150915091565b6000600980549050905090565b60006007836040516109ce9190613151565b908152602001604051809103902060009054906101000a900460ff1615610a2a576040517f08c379a0000000000000000000000000000000000000000000000000000000008152600401610a219061341c565b60405180910390fd5b60008210158015610a3c575060288211155b610a7b576040517f08c379a0000000000000000000000000000000000000000000000000000000008152600401610a729061343c565b60405180910390fd5b600060405180606001604052803373ffffffffffffffffffffffffffffffffffffffff1681526020013373ffffffffffffffffffffffffffffffffffffffff168152602001848152509050600981908060018154018082558091505060019003906000526020600020906003020160009091909190915060008201518160000160006101000a81548173ffffffffffffffffffffffffffffffffffffffff021916908373ffffffffffffffffffffffffffffffffffffffff16021790555060208201518160010160006101000a81548173ffffffffffffffffffffffffffffffffffffffff021916908373ffffffffffffffffffffffffffffffffffffffff16021790555060408201518160020155505060006009805490509050610ba03382611ca9565b610baa8186611cc7565b816008600083815260200190815260200160002060008201518160000160006101000a81548173ffffffffffffffffffffffffffffffffffffffff021916908373ffffffffffffffffffffffffffffffffffffffff16021790555060208201518160010160006101000a81548173ffffffffffffffffffffffffffffffffffffffff021916908373ffffffffffffffffffffffffffffffffffffffff160217905550604082015181600201559050506001600786604051610c6b9190613151565b908152602001604051809103902060006101000a81548160ff0219169083151502179055507facd3f0bb7315448676927177916d82d603042a661927f33e76f60c49da0f587f81338787604051610cc59493929190613540565b60405180910390a1809250505092915050565b600b6020528060005260406000206000915054906101000a900460ff1681565b610d09610d03611be8565b82611d3b565b610d48576040517f08c379a0000000000000000000000000000000000000000000000000000000008152600401610d3f906134dc565b60405180910390fd5b610d53838383611dd0565b505050565b80600c600082815260200190815260200160002060009054906101000a900473ffffffffffffffffffffffffffffffffffffffff1673ffffffffffffffffffffffffffffffffffffffff163373ffffffffffffffffffffffffffffffffffffffff1614610dfa576040517f08c379a0000000000000000000000000000000000000000000000000000000008152600401610df19061349c565b60405180910390fd5b610e05303384611dd0565b6000600a6000848152602001908152602001600020600001549050600c600084815260200190815260200160002060006101000a81549073ffffffffffffffffffffffffffffffffffffffff0219169055600a60008481526020019081526020016000206000808201600090556001820160006101000a81549073ffffffffffffffffffffffffffffffffffffffff02191690555050600b600084815260200190815260200160002060006101000a81549060ff02191690557f5f0be1e06429123bb18a91b02cae2672c631c3d0eef488ee77e1e9870a6e2cb4838233604051610ef19392919061358c565b60405180910390a1505050565b60008060006008600085815260200190815260200160002060000160009054906101000a900473ffffffffffffffffffffffffffffffffffffffff166008600086815260200190815260200160002060010160009054906101000a900473ffffffffffffffffffffffffffffffffffffffff1660086000878152602001908152602001600020600201549250925092509193909250565b610fb08383836040518060200160405280600081525061149a565b505050565b60086020528060005260406000206000915090508060000160009054906101000a900473ffffffffffffffffffffffffffffffffffffffff16908060010160009054906101000a900473ffffffffffffffffffffffffffffffffffffffff16908060020154905083565b6000806002600084815260200190815260200160002060009054906101000a900473ffffffffffffffffffffffffffffffffffffffff169050600073ffffffffffffffffffffffffffffffffffffffff168173ffffffffffffffffffffffffffffffffffffffff1614156110c8576040517f08c379a00000000000000000000000000000000000000000000000000000000081526004016110bf9061345c565b60405180910390fd5b80915050919050565b60008073ffffffffffffffffffffffffffffffffffffffff168273ffffffffffffffffffffffffffffffffffffffff161415611142576040517f08c379a00000000000000000000000000000000000000000000000000000000081526004016111399061335c565b60405180910390fd5b600360008373ffffffffffffffffffffffffffffffffffffffff1673ffffffffffffffffffffffffffffffffffffffff168152602001908152602001600020549050919050565b816111938161101f565b73ffffffffffffffffffffffffffffffffffffffff163373ffffffffffffffffffffffffffffffffffffffff1614611200576040517f08c379a00000000000000000000000000000000000000000000000000000000081526004016111f7906133fc565b60405180910390fd5b600b600084815260200190815260200160002060009054906101000a900460ff1615611261576040517f08c379a0000000000000000000000000000000000000000000000000000000008152600401611258906134bc565b60405180910390fd5b61126c333085611dd0565b33600c600085815260200190815260200160002060006101000a81548173ffffffffffffffffffffffffffffffffffffffff021916908373ffffffffffffffffffffffffffffffffffffffff16021790555060405180604001604052808381526020013373ffffffffffffffffffffffffffffffffffffffff16815250600a60008581526020019081526020016000206000820151816000015560208201518160010160006101000a81548173ffffffffffffffffffffffffffffffffffffffff021916908373ffffffffffffffffffffffffffffffffffffffff1602179055509050506001600b600085815260200190815260200160002060006101000a81548160ff0219169083151502179055507f092007ff2210a28905dcb35e8410b931493756ecaa2dc88307373c190349b0458383336040516113af9392919061358c565b60405180910390a1505050565b6060600180546113cb90613863565b80601f01602080910402602001604051908101604052809291908181526020018280546113f790613863565b80156114445780601f1061141957610100808354040283529160200191611444565b820191906000526020600020905b81548152906001019060200180831161142757829003601f168201915b5050505050905090565b611460611459611be8565b8383612037565b5050565b6007818051602081018201805184825260208301602085012081835280955050505050506000915054906101000a900460ff1681565b6114ab6114a5611be8565b83611d3b565b6114ea576040517f08c379a00000000000000000000000000000000000000000000000000000000081526004016114e1906134dc565b60405180910390fd5b6114f6848484846121a4565b50505050565b600c6020528060005260406000206000915054906101000a900473ffffffffffffffffffffffffffffffffffffffff1681565b606061153a82611b9d565b600060066000848152602001908152602001600020805461155a90613863565b80601f016020809104026020016040519081016040528092919081815260200182805461158690613863565b80156115d35780601f106115a8576101008083540402835291602001916115d3565b820191906000526020600020905b8154815290600101906020018083116115b657829003601f168201915b5050505050905060006115e4612200565b90506000815114156115fa57819250505061163d565b60008251111561162f578082604051602001611617929190613168565b6040516020818303038152906040529250505061163d565b61163884612217565b925050505b919050565b600b600082815260200190815260200160002060009054906101000a900460ff166116a2576040517f08c379a0000000000000000000000000000000000000000000000000000000008152600401611699906132fc565b60405180910390fd5b34600a600083815260200190815260200160002060000154146116fa576040517f08c379a00000000000000000000000000000000000000000000000000000000081526004016116f1906132dc565b60405180910390fd5b6000611738606461172a34600860008781526020019081526020016000206002015461227f90919063ffffffff16565b61229590919063ffffffff16565b9050600061174f82346122ab90919063ffffffff16565b905060006008600085815260200190815260200160002060010160009054906101000a900473ffffffffffffffffffffffffffffffffffffffff1673ffffffffffffffffffffffffffffffffffffffff16836040516117ad9061318c565b60006040518083038185875af1925050503d80600081146117ea576040519150601f19603f3d011682016040523d82523d6000602084013e6117ef565b606091505b5050905080611833576040517f08c379a000000000000000000000000000000000000000000000000000000000815260040161182a9061339c565b60405180910390fd5b60006008600086815260200190815260200160002060000160009054906101000a900473ffffffffffffffffffffffffffffffffffffffff1673ffffffffffffffffffffffffffffffffffffffff168360405161188f9061318c565b60006040518083038185875af1925050503d80600081146118cc576040519150601f19603f3d011682016040523d82523d6000602084013e6118d1565b606091505b5050905080611915576040517f08c379a000000000000000000000000000000000000000000000000000000000815260040161190c9061339c565b60405180910390fd5b611920303387611dd0565b6000600860008781526020019081526020016000209050338160000160006101000a81548173ffffffffffffffffffffffffffffffffffffffff021916908373ffffffffffffffffffffffffffffffffffffffff160217905550600a60008781526020019081526020016000206000808201600090556001820160006101000a81549073ffffffffffffffffffffffffffffffffffffffff02191690555050600c600087815260200190815260200160002060006101000a81549073ffffffffffffffffffffffffffffffffffffffff0219169055600b600087815260200190815260200160002060006101000a81549060ff02191690557f39cd056bcfc4b6e195eb99b09c74b00815a367bca4e86f70ecf2e0140401bd5e863433604051611a4b9392919061358c565b60405180910390a1505050505050565b6000600560008473ffffffffffffffffffffffffffffffffffffffff1673ffffffffffffffffffffffffffffffffffffffff16815260200190815260200160002060008373ffffffffffffffffffffffffffffffffffffffff1673ffffffffffffffffffffffffffffffffffffffff16815260200190815260200160002060009054906101000a900460ff16905092915050565b600a6020528060005260406000206000915090508060000154908060010160009054906101000a900473ffffffffffffffffffffffffffffffffffffffff16905082565b60007f01ffc9a7000000000000000000000000000000000000000000000000000000007bffffffffffffffffffffffffffffffffffffffffffffffffffffffff1916827bffffffffffffffffffffffffffffffffffffffffffffffffffffffff1916149050919050565b611ba6816122c1565b611be5576040517f08c379a0000000000000000000000000000000000000000000000000000000008152600401611bdc9061345c565b60405180910390fd5b50565b600033905090565b816004600083815260200190815260200160002060006101000a81548173ffffffffffffffffffffffffffffffffffffffff021916908373ffffffffffffffffffffffffffffffffffffffff160217905550808273ffffffffffffffffffffffffffffffffffffffff16611c638361101f565b73ffffffffffffffffffffffffffffffffffffffff167f8c5be1e5ebec7d5bd14f71427d1e84f3dd0314c0f7b2291e5b200ac8c7c3b92560405160405180910390a45050565b611cc382826040518060200160405280600081525061232d565b5050565b611cd0826122c1565b611d0f576040517f08c379a0000000000000000000000000000000000000000000000000000000008152600401611d069061337c565b60405180910390fd5b80600660008481526020019081526020016000209080519060200190611d36929190612887565b505050565b600080611d478361101f565b90508073ffffffffffffffffffffffffffffffffffffffff168473ffffffffffffffffffffffffffffffffffffffff161480611d895750611d888185611a5b565b5b80611dc757508373ffffffffffffffffffffffffffffffffffffffff16611daf846107f7565b73ffffffffffffffffffffffffffffffffffffffff16145b91505092915050565b8273ffffffffffffffffffffffffffffffffffffffff16611df08261101f565b73ffffffffffffffffffffffffffffffffffffffff1614611e46576040517f08c379a0000000000000000000000000000000000000000000000000000000008152600401611e3d9061329c565b60405180910390fd5b600073ffffffffffffffffffffffffffffffffffffffff168273ffffffffffffffffffffffffffffffffffffffff161415611eb6576040517f08c379a0000000000000000000000000000000000000000000000000000000008152600401611ead9061331c565b60405180910390fd5b611ec1838383612388565b611ecc600082611bf0565b6001600360008573ffffffffffffffffffffffffffffffffffffffff1673ffffffffffffffffffffffffffffffffffffffff1681526020019081526020016000206000828254611f1c9190613779565b925050819055506001600360008473ffffffffffffffffffffffffffffffffffffffff1673ffffffffffffffffffffffffffffffffffffffff1681526020019081526020016000206000828254611f739190613698565b92505081905550816002600083815260200190815260200160002060006101000a81548173ffffffffffffffffffffffffffffffffffffffff021916908373ffffffffffffffffffffffffffffffffffffffff160217905550808273ffffffffffffffffffffffffffffffffffffffff168473ffffffffffffffffffffffffffffffffffffffff167fddf252ad1be2c89b69c2b068fc378daa952ba7f163c4a11628f55a4df523b3ef60405160405180910390a461203283838361238d565b505050565b8173ffffffffffffffffffffffffffffffffffffffff168373ffffffffffffffffffffffffffffffffffffffff1614156120a6576040517f08c379a000000000000000000000000000000000000000000000000000000000815260040161209d9061333c565b60405180910390fd5b80600560008573ffffffffffffffffffffffffffffffffffffffff1673ffffffffffffffffffffffffffffffffffffffff16815260200190815260200160002060008473ffffffffffffffffffffffffffffffffffffffff1673ffffffffffffffffffffffffffffffffffffffff16815260200190815260200160002060006101000a81548160ff0219169083151502179055508173ffffffffffffffffffffffffffffffffffffffff168373ffffffffffffffffffffffffffffffffffffffff167f17307eab39ab6107e8899845ad3d59bd9653f200f220920489ca2b5937696c3183604051612197919061323f565b60405180910390a3505050565b6121af848484611dd0565b6121bb84848484612392565b6121fa576040517f08c379a00000000000000000000000000000000000000000000000000000000081526004016121f19061327c565b60405180910390fd5b50505050565b606060405180602001604052806000815250905090565b606061222282611b9d565b600061222c612200565b9050600081511161224c5760405180602001604052806000815250612277565b8061225684612529565b604051602001612267929190613168565b6040516020818303038152906040525b915050919050565b6000818361228d919061371f565b905092915050565b600081836122a391906136ee565b905092915050565b600081836122b99190613779565b905092915050565b60008073ffffffffffffffffffffffffffffffffffffffff166002600084815260200190815260200160002060009054906101000a900473ffffffffffffffffffffffffffffffffffffffff1673ffffffffffffffffffffffffffffffffffffffff1614159050919050565b612337838361268a565b6123446000848484612392565b612383576040517f08c379a000000000000000000000000000000000000000000000000000000000815260040161237a9061327c565b60405180910390fd5b505050565b505050565b505050565b60006123b38473ffffffffffffffffffffffffffffffffffffffff16612864565b1561251c578373ffffffffffffffffffffffffffffffffffffffff1663150b7a026123dc611be8565b8786866040518563ffffffff1660e01b81526004016123fe94939291906131f3565b602060405180830381600087803b15801561241857600080fd5b505af192505050801561244957506040513d601f19601f820116820180604052508101906124469190612c63565b60015b6124cc573d8060008114612479576040519150601f19603f3d011682016040523d82523d6000602084013e61247e565b606091505b506000815114156124c4576040517f08c379a00000000000000000000000000000000000000000000000000000000081526004016124bb9061327c565b60405180910390fd5b805181602001fd5b63150b7a0260e01b7bffffffffffffffffffffffffffffffffffffffffffffffffffffffff1916817bffffffffffffffffffffffffffffffffffffffffffffffffffffffff191614915050612521565b600190505b949350505050565b60606000821415612571576040518060400160405280600181526020017f30000000000000000000000000000000000000000000000000000000000000008152509050612685565b600082905060005b600082146125a357808061258c906138c6565b915050600a8261259c91906136ee565b9150612579565b60008167ffffffffffffffff8111156125bf576125be6139fc565b5b6040519080825280601f01601f1916602001820160405280156125f15781602001600182028036833780820191505090505b5090505b6000851461267e5760018261260a9190613779565b9150600a85612619919061390f565b60306126259190613698565b60f81b81838151811061263b5761263a6139cd565b5b60200101907effffffffffffffffffffffffffffffffffffffffffffffffffffffffffffff1916908160001a905350600a8561267791906136ee565b94506125f5565b8093505050505b919050565b600073ffffffffffffffffffffffffffffffffffffffff168273ffffffffffffffffffffffffffffffffffffffff1614156126fa576040517f08c379a00000000000000000000000000000000000000000000000000000000081526004016126f1906133dc565b60405180910390fd5b612703816122c1565b15612743576040517f08c379a000000000000000000000000000000000000000000000000000000000815260040161273a906132bc565b60405180910390fd5b61274f60008383612388565b6001600360008473ffffffffffffffffffffffffffffffffffffffff1673ffffffffffffffffffffffffffffffffffffffff168152602001908152602001600020600082825461279f9190613698565b92505081905550816002600083815260200190815260200160002060006101000a81548173ffffffffffffffffffffffffffffffffffffffff021916908373ffffffffffffffffffffffffffffffffffffffff160217905550808273ffffffffffffffffffffffffffffffffffffffff16600073ffffffffffffffffffffffffffffffffffffffff167fddf252ad1be2c89b69c2b068fc378daa952ba7f163c4a11628f55a4df523b3ef60405160405180910390a46128606000838361238d565b5050565b6000808273ffffffffffffffffffffffffffffffffffffffff163b119050919050565b82805461289390613863565b90600052602060002090601f0160209004810192826128b557600085556128fc565b82601f106128ce57805160ff19168380011785556128fc565b828001600101855582156128fc579182015b828111156128fb5782518255916020019190600101906128e0565b5b509050612909919061290d565b5090565b5b8082111561292657600081600090555060010161290e565b5090565b600061293d612938846135e8565b6135c3565b90508281526020810184848401111561295957612958613a30565b5b612964848285613821565b509392505050565b600061297f61297a84613619565b6135c3565b90508281526020810184848401111561299b5761299a613a30565b5b6129a6848285613821565b509392505050565b6000813590506129bd81613fe7565b92915050565b6000813590506129d281613ffe565b92915050565b6000813590506129e781614015565b92915050565b6000815190506129fc81614015565b92915050565b600082601f830112612a1757612a16613a2b565b5b8135612a2784826020860161292a565b91505092915050565b600082601f830112612a4557612a44613a2b565b5b8135612a5584826020860161296c565b91505092915050565b600081359050612a6d8161402c565b92915050565b600060208284031215612a8957612a88613a3a565b5b6000612a97848285016129ae565b91505092915050565b60008060408385031215612ab757612ab6613a3a565b5b6000612ac5858286016129ae565b9250506020612ad6858286016129ae565b9150509250929050565b600080600060608486031215612af957612af8613a3a565b5b6000612b07868287016129ae565b9350506020612b18868287016129ae565b9250506040612b2986828701612a5e565b9150509250925092565b60008060008060808587031215612b4d57612b4c613a3a565b5b6000612b5b878288016129ae565b9450506020612b6c878288016129ae565b9350506040612b7d87828801612a5e565b925050606085013567ffffffffffffffff811115612b9e57612b9d613a35565b5b612baa87828801612a02565b91505092959194509250565b60008060408385031215612bcd57612bcc613a3a565b5b6000612bdb858286016129ae565b9250506020612bec858286016129c3565b9150509250929050565b60008060408385031215612c0d57612c0c613a3a565b5b6000612c1b858286016129ae565b9250506020612c2c85828601612a5e565b9150509250929050565b600060208284031215612c4c57612c4b613a3a565b5b6000612c5a848285016129d8565b91505092915050565b600060208284031215612c7957612c78613a3a565b5b6000612c87848285016129ed565b91505092915050565b600060208284031215612ca657612ca5613a3a565b5b600082013567ffffffffffffffff811115612cc457612cc3613a35565b5b612cd084828501612a30565b91505092915050565b60008060408385031215612cf057612cef613a3a565b5b600083013567ffffffffffffffff811115612d0e57612d0d613a35565b5b612d1a85828601612a30565b9250506020612d2b85828601612a5e565b9150509250929050565b600060208284031215612d4b57612d4a613a3a565b5b6000612d5984828501612a5e565b91505092915050565b60008060408385031215612d7957612d78613a3a565b5b6000612d8785828601612a5e565b9250506020612d9885828601612a5e565b9150509250929050565b612dab816137ad565b82525050565b612dba816137bf565b82525050565b6000612dcb8261364a565b612dd58185613660565b9350612de5818560208601613830565b612dee81613a3f565b840191505092915050565b6000612e0482613655565b612e0e818561367c565b9350612e1e818560208601613830565b612e2781613a3f565b840191505092915050565b6000612e3d82613655565b612e47818561368d565b9350612e57818560208601613830565b80840191505092915050565b6000612e7060328361367c565b9150612e7b82613a50565b604082019050919050565b6000612e9360258361367c565b9150612e9e82613a9f565b604082019050919050565b6000612eb6601c8361367c565b9150612ec182613aee565b602082019050919050565b6000612ed960228361367c565b9150612ee482613b17565b604082019050919050565b6000612efc60338361367c565b9150612f0782613b66565b604082019050919050565b6000612f1f60248361367c565b9150612f2a82613bb5565b604082019050919050565b6000612f4260198361367c565b9150612f4d82613c04565b602082019050919050565b6000612f6560298361367c565b9150612f7082613c2d565b604082019050919050565b6000612f88602e8361367c565b9150612f9382613c7c565b604082019050919050565b6000612fab60138361367c565b9150612fb682613ccb565b602082019050919050565b6000612fce603e8361367c565b9150612fd982613cf4565b604082019050919050565b6000612ff160208361367c565b9150612ffc82613d43565b602082019050919050565b600061301460368361367c565b915061301f82613d6c565b604082019050919050565b600061303760338361367c565b915061304282613dbb565b604082019050919050565b600061305a60248361367c565b915061306582613e0a565b604082019050919050565b600061307d60188361367c565b915061308882613e59565b602082019050919050565b60006130a060218361367c565b91506130ab82613e82565b604082019050919050565b60006130c360428361367c565b91506130ce82613ed1565b606082019050919050565b60006130e6600083613671565b91506130f182613f46565b600082019050919050565b600061310960218361367c565b915061311482613f49565b604082019050919050565b600061312c602e8361367c565b915061313782613f98565b604082019050919050565b61314b81613817565b82525050565b600061315d8284612e32565b915081905092915050565b60006131748285612e32565b91506131808284612e32565b91508190509392505050565b6000613197826130d9565b9150819050919050565b60006020820190506131b66000830184612da2565b92915050565b60006060820190506131d16000830186612da2565b6131de6020830185612da2565b6131eb6040830184613142565b949350505050565b60006080820190506132086000830187612da2565b6132156020830186612da2565b6132226040830185613142565b81810360608301526132348184612dc0565b905095945050505050565b60006020820190506132546000830184612db1565b92915050565b600060208201905081810360008301526132748184612df9565b905092915050565b6000602082019050818103600083015261329581612e63565b9050919050565b600060208201905081810360008301526132b581612e86565b9050919050565b600060208201905081810360008301526132d581612ea9565b9050919050565b600060208201905081810360008301526132f581612ecc565b9050919050565b6000602082019050818103600083015261331581612eef565b9050919050565b6000602082019050818103600083015261333581612f12565b9050919050565b6000602082019050818103600083015261335581612f35565b9050919050565b6000602082019050818103600083015261337581612f58565b9050919050565b6000602082019050818103600083015261339581612f7b565b9050919050565b600060208201905081810360008301526133b581612f9e565b9050919050565b600060208201905081810360008301526133d581612fc1565b9050919050565b600060208201905081810360008301526133f581612fe4565b9050919050565b6000602082019050818103600083015261341581613007565b9050919050565b600060208201905081810360008301526134358161302a565b9050919050565b600060208201905081810360008301526134558161304d565b9050919050565b6000602082019050818103600083015261347581613070565b9050919050565b6000602082019050818103600083015261349581613093565b9050919050565b600060208201905081810360008301526134b5816130b6565b9050919050565b600060208201905081810360008301526134d5816130fc565b9050919050565b600060208201905081810360008301526134f58161311f565b9050919050565b60006020820190506135116000830184613142565b92915050565b600060408201905061352c6000830185613142565b6135396020830184612da2565b9392505050565b60006080820190506135556000830187613142565b6135626020830186612da2565b81810360408301526135748185612df9565b90506135836060830184613142565b95945050505050565b60006060820190506135a16000830186613142565b6135ae6020830185613142565b6135bb6040830184612da2565b949350505050565b60006135cd6135de565b90506135d98282613895565b919050565b6000604051905090565b600067ffffffffffffffff821115613603576136026139fc565b5b61360c82613a3f565b9050602081019050919050565b600067ffffffffffffffff821115613634576136336139fc565b5b61363d82613a3f565b9050602081019050919050565b600081519050919050565b600081519050919050565b600082825260208201905092915050565b600081905092915050565b600082825260208201905092915050565b600081905092915050565b60006136a382613817565b91506136ae83613817565b9250827fffffffffffffffffffffffffffffffffffffffffffffffffffffffffffffffff038211156136e3576136e2613940565b5b828201905092915050565b60006136f982613817565b915061370483613817565b9250826137145761371361396f565b5b828204905092915050565b600061372a82613817565b915061373583613817565b9250817fffffffffffffffffffffffffffffffffffffffffffffffffffffffffffffffff048311821515161561376e5761376d613940565b5b828202905092915050565b600061378482613817565b915061378f83613817565b9250828210156137a2576137a1613940565b5b828203905092915050565b60006137b8826137f7565b9050919050565b60008115159050919050565b60007fffffffff0000000000000000000000000000000000000000000000000000000082169050919050565b600073ffffffffffffffffffffffffffffffffffffffff82169050919050565b6000819050919050565b82818337600083830152505050565b60005b8381101561384e578082015181840152602081019050613833565b8381111561385d576000848401525b50505050565b6000600282049050600182168061387b57607f821691505b6020821081141561388f5761388e61399e565b5b50919050565b61389e82613a3f565b810181811067ffffffffffffffff821117156138bd576138bc6139fc565b5b80604052505050565b60006138d182613817565b91507fffffffffffffffffffffffffffffffffffffffffffffffffffffffffffffffff82141561390457613903613940565b5b600182019050919050565b600061391a82613817565b915061392583613817565b9250826139355761393461396f565b5b828206905092915050565b7f4e487b7100000000000000000000000000000000000000000000000000000000600052601160045260246000fd5b7f4e487b7100000000000000000000000000000000000000000000000000000000600052601260045260246000fd5b7f4e487b7100000000000000000000000000000000000000000000000000000000600052602260045260246000fd5b7f4e487b7100000000000000000000000000000000000000000000000000000000600052603260045260246000fd5b7f4e487b7100000000000000000000000000000000000000000000000000000000600052604160045260246000fd5b600080fd5b600080fd5b600080fd5b600080fd5b6000601f19601f8301169050919050565b7f4552433732313a207472616e7366657220746f206e6f6e20455243373231526560008201527f63656976657220696d706c656d656e7465720000000000000000000000000000602082015250565b7f4552433732313a207472616e736665722066726f6d20696e636f72726563742060008201527f6f776e6572000000000000000000000000000000000000000000000000000000602082015250565b7f4552433732313a20746f6b656e20616c7265616479206d696e74656400000000600082015250565b7f596f75206e65656420746f207061792074686520636f7272656374207072696360008201527f652e000000000000000000000000000000000000000000000000000000000000602082015250565b7f54686520746f6b656e206e6565647320746f206265206c697374656420696e2060008201527f6f7264657220746f20626520626f756768742e00000000000000000000000000602082015250565b7f4552433732313a207472616e7366657220746f20746865207a65726f2061646460008201527f7265737300000000000000000000000000000000000000000000000000000000602082015250565b7f4552433732313a20617070726f766520746f2063616c6c657200000000000000600082015250565b7f4552433732313a2061646472657373207a65726f206973206e6f74206120766160008201527f6c6964206f776e65720000000000000000000000000000000000000000000000602082015250565b7f45524337323155524953746f726167653a2055524920736574206f66206e6f6e60008201527f6578697374656e7420746f6b656e000000000000000000000000000000000000602082015250565b7f4661696c656420746f2073656e64204156415800000000000000000000000000600082015250565b7f4552433732313a20617070726f76652063616c6c6572206973206e6f7420746f60008201527f6b656e206f776e6572206e6f7220617070726f76656420666f7220616c6c0000602082015250565b7f4552433732313a206d696e7420746f20746865207a65726f2061646472657373600082015250565b7f4f6e6c7920746865206f776e6572206f662074686520746f6b656e206964206360008201527f616e2063616c6c20746869732066756e6374696f6e2e00000000000000000000602082015250565b7f54686973206d657461646174612068617320616c7265616479206265656e207560008201527f73656420746f206d696e7420616e204e46542e00000000000000000000000000602082015250565b7f526f79616c74696573206d757374206265206265747765656e20302520616e6460008201527f2034302500000000000000000000000000000000000000000000000000000000602082015250565b7f4552433732313a20696e76616c696420746f6b656e2049440000000000000000600082015250565b7f4552433732313a20617070726f76616c20746f2063757272656e74206f776e6560008201527f7200000000000000000000000000000000000000000000000000000000000000602082015250565b7f4f6e6c79207468652061646472657373207468617420686173206c697374656460008201527f2074686520746f6b656e2063616e2063616e63656c20746865206c697374696e60208201527f672e000000000000000000000000000000000000000000000000000000000000604082015250565b50565b7f54686520746f6b656e2063616e206f6e6c79206265206c6973746564206f6e6360008201527f6500000000000000000000000000000000000000000000000000000000000000602082015250565b7f4552433732313a2063616c6c6572206973206e6f7420746f6b656e206f776e6560008201527f72206e6f7220617070726f766564000000000000000000000000000000000000602082015250565b613ff0816137ad565b8114613ffb57600080fd5b50565b614007816137bf565b811461401257600080fd5b50565b61401e816137cb565b811461402957600080fd5b50565b61403581613817565b811461404057600080fd5b5056fea2646970667358221220c98a452fadb2fae8cb00cf81d140a314d2955098b541f85ce24ab63b9dcd598364736f6c63430008060033",
  "immutableReferences": {},
  "source": "// SPDX-License-Identifier: MIT\npragma solidity ^0.8.6;\n\nimport './Collectible.sol';\n\n// .\n// https://docs.avax.network/community/tutorials-contest/avalanche-erc721-tutorial#writing-our-first-erc721-contract\n\ncontract Marketplace is Collectible {\n    using SafeMath for uint256;\n\n    struct Listing {\n        uint256 price;\n        address owner;\n    }\n    mapping (uint256 => Listing) public tokenIdToListing;\n    mapping (uint256 => bool) public hasBeenListed;\n    mapping (uint256 => address) public claimableByAccount;\n    event ItemListed(uint256 tokenId, uint256 price, address seller);\n    event ListingCancelled(uint256 tokenId, uint256 price, address seller);\n    event ItemBought(uint256 tokenId, uint256 price, address buyer);\n\n    modifier onlyTokenOwner(uint256 tokenId) {\n        require(\n            msg.sender == ownerOf(tokenId),\n            \"Only the owner of the token id can call this function.\"\n        );\n        _;\n    }\n\n    modifier onlyListingAccount(uint256 tokenId) {\n        require(\n            msg.sender == claimableByAccount[tokenId],\n            \"Only the address that has listed the token can cancel the listing.\"\n        );\n        _;\n    }\n\n    // The listItem(uint256 tokenId, uint256 price) function:\n    function listItem(uint256 tokenId, uint256 price) public onlyTokenOwner(tokenId) \n    {   // The function takes two parameters, namely the token id and the price. \n        require(!hasBeenListed[tokenId], \"The token can only be listed once\"); // We begin by defining the constraints which are that only the token owner can list the NFT and that this NFT has not been listed already.\n        _transfer(msg.sender, address(this), tokenId); // Then we proceed by using the _transfer(msg.sender, address(this), tokenId) function, which is provided by the ERC721.sol contract, and we transfer the token to the Marketplace.sol contract.\n        claimableByAccount[tokenId] = msg.sender; // Then we specify the msg.sender as the address that can cancel the listing and we update the mappings accordingly by creating a new Listing\n        tokenIdToListing[tokenId] = Listing(\n            price,\n            msg.sender\n        );\n        hasBeenListed[tokenId] = true; // and by specifying that the token id has been listed.\n        emit ItemListed(tokenId, price, msg.sender); // At the end, as usual, we emit an event.\n    }\n\n    // The cancelListing(uint256 tokenId) function:\n    function cancelListing(uint256 tokenId) public onlyListingAccount(tokenId) /// Here our constraint is that only the address that has listed the item can cancel the listing. \n    { \n        _transfer(address(this), msg.sender, tokenId); // Here we transfer the item from the Marketplace smart contract back to the one who listed it,\n        uint256 price = tokenIdToListing[tokenId].price;\n        delete claimableByAccount[tokenId]; // Since the mapping claimableByAccount[tokenId] is then cleared via the delete keyword we do not need to check that the item has been listed. \n        delete tokenIdToListing[tokenId];\n        delete hasBeenListed[tokenId];\n        emit ListingCancelled(tokenId, price, msg.sender); // and emit an event by providing it information about the token id, the price and who cancelled the listing.\n    }\n\n    // The buyItem(uint256 tokenId) function:\n    function buyItem(uint256 tokenId) public payable { // Here the function takes the token id as a parameter and is a payable function, meaning that the user can send AVAX via it to the smart contract. \n        require(hasBeenListed[tokenId], \"The token needs to be listed in order to be bought.\"); // We then first check whether the item has been listed and whether the msg.value which we send with our function call equals the price of the token.\n        require(tokenIdToListing[tokenId].price == msg.value, \"You need to pay the correct price.\"); // If that is the case we split up the msg.value based on the royalty that is defined in the Item. msg.value is another global variable in Solidity:\n        \n        //split up the price between owner and creator\n        uint256 royaltyForCreator = tokenIdToItem[tokenId].royalty.mul(msg.value).div(100); // In the first line we multiply the royalty by the msg.value and then divide it by 100, since we are talking about percentages.\n        uint256 remainder = msg.value.sub(royaltyForCreator); // .sub() = SafeMath sub . Meaning that if the buyer pays 10 AVAX for the NFT and the royalty is 20%, 2 AVAX would go to the creator and the remaining 8 AVAX would go to the seller. \n        \n        //Afterwards we transfer the NFT from the Marketplace smart contract to the buyer and update the Item by modifying the owner property. \n        //send to creator\n        (bool isRoyaltySent, ) = tokenIdToItem[tokenId].creator.call{value: royaltyForCreator}(\"\");\n        // .call{ }(  ). \n        // 1.    call{value: value}(\"\").     (\"\") .\n        // 2.    .(\"\") \"\"   .    .call(\"\") {}    .\n        // https://www.youtube.com/watch?v=ax5lHvxL9dE 6 ~ 9\n        // https://medium.com/coinmonks/solidity-transfer-vs-send-vs-call-function-64c92cfc878a\n        // (bool sent, bytes memory data) = _to.call.gas(10000){value: msg.value}(\"\");\n        require(isRoyaltySent, \"Failed to send AVAX\");\n        //send to owner\n        (bool isRemainderSent, ) = tokenIdToItem[tokenId].owner.call{value: remainder}(\"\");\n        require(isRemainderSent, \"Failed to send AVAX\");\n\n        //transfer the token from the smart contract back to the buyer\n        _transfer(address(this), msg.sender, tokenId);\n\n        //Modify the owner property of the item to be the buyer\n        Item storage item = tokenIdToItem[tokenId];\n        item.owner = msg.sender;\n\n        // Finally, as we did before, we clean up the mappings and emit an event passing the necessary information to it.\n        //clean up\n        delete tokenIdToListing[tokenId];\n        delete claimableByAccount[tokenId];\n        delete hasBeenListed[tokenId];\n        emit ItemBought(tokenId, msg.value, msg.sender);\n    }\n    function getListing(uint256 tokenId) public view returns (uint256, address)\n    { // At the end we define a view function which is used to obtain information about a certain listing. Again, calling this function costs no gas.\n        return (tokenIdToListing[tokenId].price, tokenIdToListing[tokenId].owner);\n    }\n\n}\n\n\n\n\n\n\n\n\n\n\n\n\n\n\n\n\n\n\n\n\n\n\n\n",
  "sourcePath": "/Users/clonftteam/Desktop/learning/Avalanche/ERC721 Tutorial/contracts/Marketplace.sol",
  "compiler": {
    "name": "solc",
    "version": "0.8.6+commit.11564f7e.Emscripten.clang"
  },
  "schemaVersion": "3.4.8",
  "updatedAt": "2022-07-18T02:39:57.928Z",
  "devdoc": {
    "kind": "dev",
    "methods": {
      "approve(address,uint256)": {
        "details": "See {IERC721-approve}."
      },
      "balanceOf(address)": {
        "details": "See {IERC721-balanceOf}."
      },
      "getApproved(uint256)": {
        "details": "See {IERC721-getApproved}."
      },
      "isApprovedForAll(address,address)": {
        "details": "See {IERC721-isApprovedForAll}."
      },
      "name()": {
        "details": "See {IERC721Metadata-name}."
      },
      "ownerOf(uint256)": {
        "details": "See {IERC721-ownerOf}."
      },
      "safeTransferFrom(address,address,uint256)": {
        "details": "See {IERC721-safeTransferFrom}."
      },
      "safeTransferFrom(address,address,uint256,bytes)": {
        "details": "See {IERC721-safeTransferFrom}."
      },
      "setApprovalForAll(address,bool)": {
        "details": "See {IERC721-setApprovalForAll}."
      },
      "supportsInterface(bytes4)": {
        "details": "See {IERC165-supportsInterface}."
      },
      "symbol()": {
        "details": "See {IERC721Metadata-symbol}."
      },
      "tokenURI(uint256)": {
        "details": "See {IERC721Metadata-tokenURI}."
      },
      "transferFrom(address,address,uint256)": {
        "details": "See {IERC721-transferFrom}."
      }
    },
    "version": 1
  },
  "userdoc": {
    "kind": "user",
    "methods": {},
    "version": 1
  }
}